:020000040800F2
:10000000C007002001010008090100080B010008D9
:100010000D0100080F010008110100080000000098
:1000200000000000000000000000000013010008B4
:100030001501000800000000170100081901000860
:100040001B0100081B0100081B0100081B01000820
:100050001B0100081B0100081B0100081B01000810
:100060001B0100081B0100081B0100081B01000800
:100070001B0100081B0100081B0100081B010008F0
:100080001B0100081B0100081B0100081B010008E0
:100090001B0100081B0100081B0100081B010008D0
:1000A0001B0100081B0100081B0100081B010008C0
:1000B0001B0100081B0100081B0100081B010008B0
:1000C0001B0100081B0100081B0100081B010008A0
:1000D0001B0100081B0100081B0100081B01000890
:1000E0001B0100081B0100081B010008DFF80CD0F1
:1000F00000F018F80048004781120008C0070020EF
:100100000648804706480047FEE7FEE7FEE7FEE7B1
:10011000FEE7FEE7FEE7FEE7FEE7FEE7CD0D00089F
:10012000ED000008064C074D06E0E06840F00103D2
:1001300094E8070098471034AC42F6D3FFF7DAFF93
:10014000541B0008741B000870B58D1810F8014B83
:1001500014F0030201D110F8012B231106D110F87D
:10016000013B03E010F8016B01F8016B521EF9D15D
:10017000ABB110F8012B04F00C048A1A0C2C03D03C
:10018000A2EB84129B1C08E010F8014BA2EB0422A6
:10019000F8E712F8014B01F8014B5B1EF9D5A942B3
:1001A000D4D3002070BD000010B500F087FA00F035
:1001B0009BFA00222021184800F07AFA8021164884
:1001C00000F069FA15490860084600681449096892
:1001D00088421DD00F2001F046F880210E4800F023
:1001E0005AFA0E490968884212D10D48006840B990
:1001F00000200C4908600C4800680A300A49086071
:1002000002E00120074908600448006804490860CA
:100210000548006810BD0000000C0140800300206C
:10022000840300208C0300208803002008B50121EE
:10023000042000F0DDFC1020ADF8000001208DF856
:10024000020004208DF803006946024800F098F986
:1002500008BD00000008014008B50121042000F09D
:10026000C7FC1020ADF8000001208DF8020010201E
:100270008DF803006946024800F082F908BD0000CD
:10028000000801401CB5694601A800F005F808B94E
:100290009DF8044020461CBD2DE9FC4105460E4654
:1002A000002700200090019000F084F8002858D129
:1002B000002430E000BF10212B4800F0ECF90028AA
:1002C000F9D0002702E000F0F1F87F1C1021264849
:1002D00000F0E1F90028F6D1052F1ADDE21704EB52
:1002E0005272D2101DF802202146E31704EB53731B
:1002F000DB10A4EBC303C3F1070C012303FA0CF3D7
:100300001A43D2B22046E31704EB5373DB100DF807
:100310000320601CC4B2282CCCDB00F0C7F8FFF728
:100320009BFF01221021104800F0C2F99DF8000047
:100330009DF8011008449DF8021008449DF8031030
:1003400008449DF80410884203D04FF0FF30BDE808
:10035000FC819DF8020028709DF80000307000209C
:10036000F5E74FF0FF30F2E70008014038B56424AC
:100370000121042000F03CFC1020ADF80000012019
:100380008DF8020010208DF803006946084800F03F
:10039000F7F801221021064800F08AF902E00A204D
:1003A00000F061FF201EA4F10104F8D138BD000067
:1003B0000008014010B500BFFFF74EFF01221021D9
:1003C000174800F075F9142000F04DFF00221021AD
:1003D000134800F06DF9142000F045FF01221021B0
:1003E0000F4800F065F9FFF721FF00F05FF800F01B
:1003F0005DF800F05BF81021094800F04CF970B985
:1004000000BF1021064800F046F90028F9D000BFCF
:100410001021034800F03FF90028F9D110BDCBE7C7
:100420000008014010B500F049F900F05DF9002224
:100430002021194800F03CF94FF48071164800F073
:100440002AF9164908600846006815490968884273
:100450001ED00F2000F007FF4FF480710E4800F00F
:100460001AF90E490968884212D10D48006840B94E
:1004700000200C4908600C4800680A300A490860EE
:1004800002E0012007490860044800680449086048
:100490000548006810BD0000000C014090030020DA
:1004A000940300209C03002098030020642000BFD8
:1004B000011EA0F10100FBD17047014605E00020BC
:1004C00001E0421CD0B27B28FBDB0A1EA1F1010136
:1004D000F5D1704708B50121042000F089FB4FF4E5
:1004E0008060ADF8000001208DF8020004208DF836
:1004F00003006946014800F043F808BD00080140C8
:1005000008B50121042000F073FB4FF40070ADF832
:10051000000001208DF8020018208DF803006946C4
:10052000014800F02DF808BD0008014008B5012180
:10053000042000F05DFB0420ADF8000003208DF8DE
:10054000020018208DF8030069460B4800F018F8E7
:100550000121102000F04CFB4FF40050ADF80000DA
:1005600003208DF8020018208DF803006946034827
:1005700000F006F808BD000000080140001001402E
:100580002DE9F0410246002500260020002300242A
:10059000002791F803C00CF00F0591F803C00CF090
:1005A000100CBCF1000F03D091F802C04CEA050515
:1005B00091F800C0BCF1000F31D0146800202BE08E
:1005C0004FF0010C0CFA00F3B1F800C00CEA03067E
:1005D0009E4220D183004FF00F0C0CFA03F7BC436E
:1005E00005FA03FC4CEA040491F803C0BCF1280F9F
:1005F00006D14FF0010C0CFA00FCC2F814C00AE05E
:1006000091F803C0BCF1480F05D14FF0010C0CFA72
:1006100000FCC2F810C0401C0828D1D31460B1F807
:1006200000C0BCF1FF0F34DD546800202EE000F163
:10063000080C4FF0010808FA0CF3B1F800C00CEAFE
:1006400003069E4221D183004FF00F0C0CFA03F7F2
:10065000BC4305FA03FC4CEA040491F803C0BCF166
:10066000280F05D100F1080C08FA0CF8C2F8148024
:1006700091F803C0BCF1480F07D100F1080C4FF00E
:10068000010808FA0CF8C2F81080401C0828CED3E4
:100690005460BDE8F0810246002093680B400BB126
:1006A000012000E000207047416170470161704700
:1006B0000AB1016100E041617047000008B5012105
:1006C000082000F095FA2020ADF8000001208DF8F8
:1006D000020010208DF8030069460248FFF750FF22
:1006E00008BD0000000C014008B50121082000F001
:1006F0007FFA4FF4E070ADF8000001208DF80200A1
:1007000048208DF8030069460148FFF739FF08BD0E
:10071000000C014010B520210748FFF7C7FF8021DA
:100720000548FFF7C3FF80210348FFF7BDFF2021E5
:100730000148FFF7B9FF10BD0008014010B52021A6
:100740000548FFF7B3FF80210348FFF7ADFF802185
:100750000148FFF7ABFF10BD0008014010B5202194
:100760000348FFF7A3FF20210148FFF79DFF10BDBD
:100770000008014010B5FFF7A1FFFFF7B5FF002209
:1007800020211648FFF794FF40211448FFF783FF0C
:10079000134908600846006812490968884219D060
:1007A0000F2000F060FD40210C48FFF774FF0C495A
:1007B000096888420ED10B48006838B90A480068B9
:1007C00008B9012000E000200749086004480068DB
:1007D000044908600448006810BD0000000C014096
:1007E000A0030020A4030020A803002008B50121D5
:1007F000102000F0FDF94FF40050ADF8000001208A
:100800008DF8020010208DF8030069460148FFF7BB
:10081000B7FE08BD0010014070B5002418E004F1D7
:10082000B000002100F09DF90021084600F099F980
:100830000021102000F095F9002505E0012100209D
:1008400000F08FF9681CC5B2802DF7DB601CC4B2C4
:10085000082CE4DB70BD000008B50121042000F085
:10086000C7F9A020ADF8000010208DF80300032088
:100870008DF8020069463C48FFF782FEA0213A4805
:10088000FFF714FF4FF44870FFF717FE0021AE206A
:1008900000F067F90021084600F063F900211020FC
:1008A00000F05FF90021402000F05BF90021B0204A
:1008B00000F057F90021812000F053F90021FF20BA
:1008C00000F04FF90021A12000F04BF90021A620F3
:1008D00000F047F90021A82000F043F900213F2053
:1008E00000F03FF90021C82000F03BF90021D3209F
:1008F00000F037F90021084600F033F90021D52037
:1009000000F02FF90021802000F02BF90021D820E1
:1009100000F027F90021052000F023F90021D9205B
:1009200000F01FF90021F12000F01BF90021DA206E
:1009300000F017F90021122000F013F90021DB204C
:1009400000F00FF90021302000F00BF900218D207C
:1009500000F007F90021142000F003F90021AF2076
:1009600000F0FFF808BD00000008014070B5044623
:100970000D4605F1B000002100F0F3F8102141EA26
:100980001410002100F0EDF804F00F00002100F039
:10099000E8F870BD2DE9F04180460E461546002767
:1009A00031464046FFF7E2FF00240AE0124A02EB1C
:1009B0008511085D012100F0D4F8781CC7B2601CD5
:1009C000C4B2102CF2DB701CC1B24046FFF7CEFF60
:1009D00000240CE06900491C074A02EB4111085D44
:1009E000012100F0BEF8781CC7B2601CC4B2102C04
:1009F000F0DBBDE8F0810000000000202DE9F047A9
:100A000007460E469046994600250024A8F120008E
:100A1000C5B27F2F02DD0027B01CC6B2B9F1100F9E
:100A200024D131463846FFF7A1FF002408E004EB4B
:100A30000511194A505C012100F093F8601CC4B202
:100A4000082CF4DB701CC1B23846FFF78FFF00247E
:100A500009E004EB051108310F4A505C012100F058
:100A600080F8601CC4B2082CF3DB12E03146384633
:100A7000FFF77CFF00240AE005EB4501074A02EB83
:100A80004101085D012100F06CF8601CC4B2062C25
:100A9000F2DBBDE8F0870000621500083A13000899
:100AA0002DE9FF5F074691461E460E9D4FF0000A56
:100AB000002435E0301B401EC1B20A2000F032FC99
:100AC000B9FBF0F00A21B0FBF1F201FB1208BAF118
:100AD000000F14D1701EA04211DDB8F1000F0CD12F
:100AE000AB4605EBDB71491001FB0471C8B22B4624
:100AF00020220199FFF782FF10E04FF0010AAB4678
:100B000005EBDB71491001FB0471C8B208F130013B
:100B1000CAB22B460199FFF771FF00BF601CC4B237
:100B2000B442C7DBBDE8FF9F2DE9F04104460F4604
:100B30001546984600260FE0AA5D434639462046F2
:100B4000FFF75CFF04F10800C4B2782C02DD00243A
:100B5000B81CC7B2701CC6B2A85D0028ECD1BDE8B5
:100B6000F08170B504460D461DB1E0B200F056FBB1
:100B700002E0E0B200F03CFB70BD000038B5044676
:100B8000012202211820FFF705FF0222114628202A
:100B9000FFF700FF102307A202213A20FFF7C4FF4E
:100BA000102002232246194600904C20FFF778FFC0
:100BB00038BD00003A00000010B5044640F259501C
:100BC000C0EB841081B24FF0804000F0CAF910BD34
:100BD00029B1064AD2690243044BDA6104E0034AB0
:100BE000D2698243014BDA61704700000010024075
:100BF00029B1064A92690243044B9A6104E0034A10
:100C000092698243014B9A617047000000100240D4
:100C100030B500210022002400232D4D6D6805F021
:100C20000C0121B1042905D0082923D105E0294D63
:100C3000056022E0274D05601FE0254D6D6805F435
:100C40007012234D6D6805F48034022505EB924245
:100C50001CB9214D554305600BE01D4D6D6805F431
:100C600000351DB11C4D5543056002E0194D55433B
:100C7000056002E0174D056000BF00BF144D6D68B0
:100C800005F0F0010909154D6B5C0568DD40456014
:100C90000F4D6D6805F4E061090A104D6B5C456805
:100CA000DD4085600A4D6D6805F46051C90A0B4D41
:100CB0006B5C4568DD40C560054D6D6805F44041DD
:100CC000890B074D6B5CC568B5FBF3F5056130BD5D
:100CD0000010024000127A0000093D00AC03002021
:100CE000BC03002010B500F001F810BD0CB50020C9
:100CF000019000903348006840F48030314908602A
:100D000000BF3048006800F4003000900198401C9B
:100D10000190009818B90198B0F5A06FF1D1294859
:100D2000006800F4003010B10120009001E00020C4
:100D300000900098012843D12348006840F010003B
:100D4000214908600846006820F003000860084652
:100D5000006840F0020008601A484068194948607D
:100D60000846406848600846406840F48060486033
:100D70000846406820F47C1048600846406840F40B
:100D8000E81048600846006840F08070086000BFC6
:100D90000C48006800F000700028F9D0094840684D
:100DA00020F00300074948600846406840F0020010
:100DB000486000BF0348406800F00C000828F9D1E3
:100DC0000CBD0000001002400020024010B5134886
:100DD000006840F001001149086008464068104969
:100DE00008400E494860084600680E4908400B4913
:100DF00008600846006820F48020086008464068C3
:100E000020F4FE0048604FF41F008860FFF76AFF7F
:100E10004FF000600449086010BD0000001002405F
:100E20000000FFF8FFFFF6FE08ED00E021B10288A8
:100E300042F00102028004E002884FF6FE731A407D
:100E40000280704730B587B005460C460121084640
:100E5000FFF7BEFE681E80B2ADF81400601E80B2BF
:100E6000ADF810000020ADF81600ADF8120004A98E
:100E70004FF0804000F078F86020ADF800000120CD
:100E8000ADF802004FF4FA70ADF806000020ADF89E
:100E9000080069464FF0804000F00AF80821C806B3
:100EA00000F056F801218807FFF7C0FF07B030BDFA
:100EB00070B5002400220023058C4FF6FF663540F4
:100EC0000584028C8388848B4FF68F752C404FF6F7
:100ED000FC752C400D882C434FF6FF552A400D8998
:100EE0004FF6FF7606EA05252A434D8806EA0525D2
:100EF0002A43154DA84202D0144DA8421DD14FF2ED
:100F0000FF752A404D894FF6FF7606EA05252A43EC
:100F10004FF6FF352A408D8806EA05252A434EF60E
:100F2000FF752B404DF6FF752B408D8906EA0515A0
:100F30002B43CD8906EA05152B4383808483CD8816
:100F40008587028470BD0000002C01400034014000
:100F50000A460021818B4FF6F773194011438183B4
:100F60007047818770470000002202881D4B98421D
:100F70000ED01D4B98420BD0B0F1804F08D01B4BC8
:100F8000984205D01A4B984202D01A4B984204D18D
:100F90004FF68F731A404B881A43174B984207D06D
:100FA000164B984204D04FF6FF431A40CB881A43A1
:100FB00002808B8883850B8803850A4B98420BD06F
:100FC000094B984208D00E4B984205D00D4B9842E1
:100FD00002D00D4B984201D10B7A03860123838204
:100FE00070470000002C0140003401400004004024
:100FF00000080040000C00400010004000140040B9
:1010000000400140004401400048014021B1828974
:1010100042F40052828104E082894DF6FF731A4047
:1010200082817047F0B50346002400260025002089
:1010300040F66A17B94200D100BF1846C1F3421406
:1010400001F01F06012707FA06F5012C01D10C302B
:1010500004E0022C01D1103000E014301AB107680E
:101060002F43076002E00768AF430760F0BD000050
:101070002DE9F04786B005460E460024A24600BF83
:10108000A1460027B08900B100BF2F462C8A4CF63C
:10109000FF700440F08804432C82AC894EF6F310B4
:1010A0000440B08831890843718908430443AC8106
:1010B000AC8A4FF6FF400440B0890443AC8201A8DB
:1010C000FFF7A6FD1F48874202D1DDF810A001E01E
:1010D000DDF80CA0A88900F4004040B10AEBCA007A
:1010E00000EB0A1031684900B0FBF1F807E00AEBA9
:1010F000CA0000EB0A1031688900B0FBF1F86420E7
:10110000B8FBF0F004012009642101FB1089A889D3
:1011100000F4004040B1322000EBC900B0FBF1F018
:1011200000F00700044308E0322000EB09106421BE
:10113000B0FBF1F000F00F0004432C8106B0BDE8D5
:10114000F0870000003801401FB50446FFF7D8F9CA
:10115000FFF7C0F901218803FFF74AFD0094002042
:10116000ADF80400ADF806000C20ADF80A00002030
:10117000ADF80800ADF80C0069460748FFF778FFA6
:10118000012240F225510448FFF74CFF012102489B
:10119000FFF73CFF1FBD0000003801402DE9F04182
:1011A00005462C4620211148FFF77EFA002619E05B
:1011B000274607F08007802F04D180210B48FFF7D6
:1011C00075FA03E080210948FFF76EFA6006040E05
:1011D00020210648FFF76AFA20210448FFF764FA45
:1011E000701CC6B2082EE3DBBDE8F08100080140A8
:1011F00010B50446FFF78EFA7820FFF7CFFFFFF710
:10120000ADFA0020FFF7CAFFFFF7A8FA2046FFF764
:10121000C5FFFFF7A3FAFFF791FA10BD10B504461A
:10122000FFF778FA7820FFF7B9FFFFF797FA402029
:10123000FFF7B4FFFFF792FA2046FFF7AFFFFFF783
:101240008DFAFFF77BFA10BD02E008C8121F08C133
:10125000002AFAD170477047002001E001C1121F37
:10126000002AFBD1704706E0002100E0491C41F64E
:1012700072729142FADB011EA0F10100F4D17047B5
:101280001324FFF7B3FA4FF4E130FFF75DFFFFF7E8
:101290006DF8FFF7E1FAFFF749F948214FF47A704A
:1012A000FFF7D0FDFFF7B8FA38E0FFF763FA01283F
:1012B00012D141031A48FFF7F9F9FEF7E3FF06469A
:1012C000FFF75CFCFEF7DEFF86B23046FFF774FCEA
:1012D0003220FFF7C8FF1BE0FEF766FF0446FFF76A
:1012E000A1F80546641B4FF400510D48FFF7DCF9E7
:1012F000FEF7C8FF0646FFF741FC04EB84004004FC
:10130000010C4FF08040FFF72CFE132C00DC13245F
:10131000632C00DB13243220FFF7A5FFC5E7000094
:101320000010014010B50246012000E050430B1EA2
:10133000A1F10104E1B2F9D110BD000000000000EC
:101340000000002F000000000700070000147F14B9
:101350007F1400242A7F2A120062640813230036B7
:101360004955225000000503000000001C224100E6
:10137000000041221C000014083E08140008083E2A
:101380000808000000A06000000808080808000025
:1013900060600000002010080402003E5149453EF4
:1013A0000000427F40000042615149460021414512
:1013B0004B31001814127F10002745454539003C79
:1013C0004A49493000017109050300364949493647
:1013D00000064949291E0000363600000000563636
:1013E000000000081422410000141414141400001A
:1013F0004122140800020151090600324959513EA8
:10140000007C1211127C007F49494936003E41415F
:101410004122007F4141221C007F49494941007F10
:1014200009090901003E4149497A007F0808087FFF
:101430000000417F4100002040413F01007F08142F
:101440002241007F40404040007F020C027F007F2D
:101450000408107F003E4141413E007F0909090612
:10146000003E4151215E007F091929460046494945
:1014700049310001017F0101003F4040403F001F12
:101480002040201F003F4038403F00631408146391
:1014900000070870080700615149454300007F417B
:1014A000410000552A552A55000041417F000004A3
:1014B00002010204004040404040000001020400DC
:1014C000002054545478007F484444380038444441
:1014D000442000384444487F0038545454180008CD
:1014E0007E0901020018A4A4A47C007F08040478EB
:1014F0000000447D4000004080847D00007F102873
:1015000044000000417F4000007C04180478007C07
:101510000804047800384444443800FC2424241887
:101520000018242418FC007C0804040800485454C3
:10153000542000043F444020003C4040207C001CDC
:101540002040201C003C4030403C004428102844EF
:10155000001CA0A0A07C004464544C441414141437
:101560001414000000000000000000000000000053
:101570000000000000F80000000000000033300010
:10158000000000100C06100C060000000000000017
:10159000000040C07840C0784000043F04043F048D
:1015A0000400007088FC08300000001820FF211E95
:1015B0000000F008F000E018000000211C031E21CC
:1015C0001E0000F00888700000001E212324192747
:1015D000211010160E0000000000000000000000A6
:1015E0000000000000E018040200000000071820BE
:1015F000400000020418E00000000040201807002E
:101600000000404080F0804040000202010F0102D3
:101610000200000000F0000000000101011F0101B4
:101620000100000000000000000080B07000000019
:1016300000000000000000000000000101010101A5
:101640000101000000000000000000303000000038
:10165000000000000000806018040060180601000F
:10166000000000E010080810E000000F102020101B
:101670000F00001010F8000000000020203F202084
:10168000000000700808088870000030282422211B
:1016900030000030088888483000001820202011D1
:1016A0000E000000C02010F8000000070424243FB2
:1016B000240000F80888880808000019212020115B
:1016C0000E0000E0108888180000000F1120201183
:1016D0000E0000380808C83808000000003F00006D
:1016E00000000070880808887000001C2221212258
:1016F0001C0000E010080810E00000003122221158
:101700000F00000000C0C0000000000000303000EA
:101710000000000000800000000000008060000069
:1017200000000000804020100800000102040810A2
:1017300020004040404040404000040404040404B1
:10174000040000081020408000000020100804025F
:101750000100007048080808F00000000030360161
:101760000000C030C828E810E00007182724231420
:101770000B000000C038E0000000203C23020227DC
:10178000382008F8888888700000203F2020201129
:101790000E00C03008080808380007182020201064
:1017A000080008F808080810E000203F202020105A
:1017B0000F0008F88888E8081000203F2020232028
:1017C000180008F88888E8081000203F200003006F
:1017D0000000C03008080838000007182020221E2A
:1017E000020008F808000008F808203F2101012144
:1017F0003F20000808F8080800000020203F2020B3
:10180000000000000808F8080800C08080807F0001
:10181000000008F888C028180800203F200126385A
:10182000200008F8080000000000203F20202020B1
:10183000300008F8F800F8F80800203F003F003FAB
:10184000200008F830C00008F808203F20000718E2
:101850003F00E01008080810E0000F1020202010C2
:101860000F0008F808080808F000203F21010101D6
:101870000000E01008080810E0000F182424385079
:101880004F0008F8888888887000203F2000030CEB
:1018900030200070880808083800003820212122F4
:1018A0001C00180808F8080818000000203F200055
:1018B000000008F808000008F808001F2020202079
:1018C0001F000878880000C83808000007380E019B
:1018D0000000F80800F80008F800033C0700073C87
:1018E0000300081868808068180820302C03032C37
:1018F00030200838C800C83808000000203F200009
:10190000000010080808C8380800203826212020C8
:101910001800000000FE020202000000007F4040AC
:101920004000000C30C0000000000000000106383C
:10193000C00000020202FE000000004040407F00A4
:101940000000000004020202040000000000000089
:101950000000000000000000000080808080808087
:10196000808000020204000000000000000000006F
:1019700000000000808080800000001924222222C4
:101980003F2008F8008080000000003F1120201157
:101990000E000000008080800000000E112020203A
:1019A0001100000000808088F800000E1120201037
:1019B0003F200000808080800000001F2222222221
:1019C0001300008080F0888888180020203F2020A5
:1019D00000000000808080808000006B94949493CD
:1019E000600008F8008080800000203F2100002077
:1019F0003F2000809898000000000020203F202019
:101A00000000000000809898000000C08080807F67
:101A1000000008F8000080808000203F24022D3064
:101A20002000000808F8000000000020203F2020CF
:101A300000008080808080808000203F20003F2048
:101A4000003F8080008080800000203F2100002037
:101A50003F200000808080800000001F2020202088
:101A60001F00808000808000000080FFA1202011E6
:101A70000E000000008080808000000E112020A059
:101A8000FF80808080008080800020203F21200017
:101A90000100000080808080800000332424242402
:101AA0001900008080E0808000000000001F2020DE
:101AB00000008080000000808000001F2020201097
:101AC0003F20808080000080808000010E3008066A
:101AD000010080800080008080800F300C030C307B
:101AE0000F0000808000808080000020312E0E31A9
:101AF0002000808080000080808080818E701806A9
:101B0000010000808080808080000021302C222114
:101B1000300000000000807C020200000000003F56
:101B2000404000000000FF00000000000000FF0037
:101B300000000002027C800000000040403F0000E6
:101B40000000000601010202040400000000000081
:101B500000000000741B000800000020C00300000B
:101B600048010008101D0008C00300200004000008
:101B700058120008F010201008FC032020107F8865
:101B8000888482E000011005040404050443FF0476
:101B900001F12030081060028C00FE92010312FE59
:101BA0000040000E117E014448507F40407F504865
:101BB0004440222009FC242424FC2526240801106A
:101BC0006000101440308F80844C55252525554CDD
:101BD000808080801006445454547F040111602199
:101BE00080000A110000FF15151555957F7E200A0B
:101BF000404042CC002022E222030211209F000E2E
:101C00001080403F40A0988780809FA0A0BC80119A
:101C1000C11006FE020202F2040112FF100D008044
:101C2000804047201806017E808044051061130221
:101C3000027B33FE2204000411E202025F000C1159
:101C4000FF484443404040434444FFC0053EC04237
:101C5000200152FF080112C0040B1120100C0300D8
:101C6000030C102040801008403011969090910491
:101C700008061298141350304008081504044484D0
:101C80007E060540000F1010D0FF901080482809F4
:101C90000E0828488840000D120300FF00018080D4
:101CA000432C102C43801A40BD080A100804E3049A
:101CB000081020204000153A197C2004407F420182
:101CC0000113201B2020991A43A401134025E03161
:101CD0003C07134242E0100B008060F80740300FD1
:101CE000F88801F70808E0297D35C62208010212AC
:101CF00000203104A10C011210711420040203040D
:101D00000400090006070809020406080000000094
:04000005080000ED02
:00000001FF
